{
  "contractName": "DecentralizedJobBoard",
  "abi": [
    {
      "inputs": [],
      "stateMutability": "nonpayable",
      "type": "constructor"
    },
    {
      "anonymous": false,
      "inputs": [
        {
          "indexed": true,
          "internalType": "uint256",
          "name": "jobId",
          "type": "uint256"
        },
        {
          "indexed": true,
          "internalType": "address",
          "name": "employer",
          "type": "address"
        },
        {
          "indexed": false,
          "internalType": "uint256",
          "name": "amount",
          "type": "uint256"
        }
      ],
      "name": "EmployerRefunded",
      "type": "event"
    },
    {
      "anonymous": false,
      "inputs": [
        {
          "indexed": true,
          "internalType": "uint256",
          "name": "jobId",
          "type": "uint256"
        },
        {
          "indexed": true,
          "internalType": "address",
          "name": "freelancer",
          "type": "address"
        }
      ],
      "name": "JobApplied",
      "type": "event"
    },
    {
      "anonymous": false,
      "inputs": [
        {
          "indexed": true,
          "internalType": "uint256",
          "name": "jobId",
          "type": "uint256"
        },
        {
          "indexed": true,
          "internalType": "address",
          "name": "employer",
          "type": "address"
        },
        {
          "indexed": false,
          "internalType": "string",
          "name": "title",
          "type": "string"
        },
        {
          "indexed": false,
          "internalType": "uint256",
          "name": "budget",
          "type": "uint256"
        }
      ],
      "name": "JobPosted",
      "type": "event"
    },
    {
      "anonymous": false,
      "inputs": [
        {
          "indexed": true,
          "internalType": "uint256",
          "name": "jobId",
          "type": "uint256"
        },
        {
          "indexed": true,
          "internalType": "address",
          "name": "freelancer",
          "type": "address"
        },
        {
          "indexed": false,
          "internalType": "uint256",
          "name": "amount",
          "type": "uint256"
        }
      ],
      "name": "PaymentReleased",
      "type": "event"
    },
    {
      "inputs": [
        {
          "internalType": "uint256",
          "name": "",
          "type": "uint256"
        }
      ],
      "name": "escrowedAmounts",
      "outputs": [
        {
          "internalType": "uint256",
          "name": "",
          "type": "uint256"
        }
      ],
      "stateMutability": "view",
      "type": "function",
      "constant": true
    },
    {
      "inputs": [],
      "name": "jobCount",
      "outputs": [
        {
          "internalType": "uint256",
          "name": "",
          "type": "uint256"
        }
      ],
      "stateMutability": "view",
      "type": "function",
      "constant": true
    },
    {
      "inputs": [
        {
          "internalType": "uint256",
          "name": "",
          "type": "uint256"
        }
      ],
      "name": "jobs",
      "outputs": [
        {
          "internalType": "uint256",
          "name": "id",
          "type": "uint256"
        },
        {
          "internalType": "string",
          "name": "title",
          "type": "string"
        },
        {
          "internalType": "string",
          "name": "description",
          "type": "string"
        },
        {
          "internalType": "uint256",
          "name": "budget",
          "type": "uint256"
        },
        {
          "internalType": "uint256",
          "name": "duration",
          "type": "uint256"
        },
        {
          "internalType": "address",
          "name": "employer",
          "type": "address"
        },
        {
          "internalType": "address",
          "name": "freelancer",
          "type": "address"
        },
        {
          "internalType": "bool",
          "name": "fundsEscrowed",
          "type": "bool"
        },
        {
          "internalType": "bool",
          "name": "paymentReleased",
          "type": "bool"
        }
      ],
      "stateMutability": "view",
      "type": "function",
      "constant": true
    },
    {
      "inputs": [],
      "name": "owner",
      "outputs": [
        {
          "internalType": "address",
          "name": "",
          "type": "address"
        }
      ],
      "stateMutability": "view",
      "type": "function",
      "constant": true
    },
    {
      "inputs": [
        {
          "internalType": "string",
          "name": "_title",
          "type": "string"
        },
        {
          "internalType": "string",
          "name": "_description",
          "type": "string"
        },
        {
          "internalType": "uint256",
          "name": "_budget",
          "type": "uint256"
        },
        {
          "internalType": "uint256",
          "name": "_duration",
          "type": "uint256"
        }
      ],
      "name": "postJob",
      "outputs": [],
      "stateMutability": "nonpayable",
      "type": "function"
    },
    {
      "inputs": [
        {
          "internalType": "uint256",
          "name": "_jobId",
          "type": "uint256"
        }
      ],
      "name": "escrowFunds",
      "outputs": [],
      "stateMutability": "payable",
      "type": "function",
      "payable": true
    },
    {
      "inputs": [
        {
          "internalType": "uint256",
          "name": "_jobId",
          "type": "uint256"
        }
      ],
      "name": "applyForJob",
      "outputs": [],
      "stateMutability": "nonpayable",
      "type": "function"
    },
    {
      "inputs": [
        {
          "internalType": "uint256",
          "name": "_jobId",
          "type": "uint256"
        }
      ],
      "name": "releasePayment",
      "outputs": [],
      "stateMutability": "nonpayable",
      "type": "function"
    },
    {
      "inputs": [],
      "name": "getJobCount",
      "outputs": [
        {
          "internalType": "uint256",
          "name": "",
          "type": "uint256"
        }
      ],
      "stateMutability": "view",
      "type": "function",
      "constant": true
    }
  ],
  "bytecode": "0x608060405234801561000f575f80fd5b503360015f6101000a81548173ffffffffffffffffffffffffffffffffffffffff021916908373ffffffffffffffffffffffffffffffffffffffff1602179055506117478061005d5f395ff3fe608060405260043610610085575f3560e01c806371bf6bed1161005857806371bf6bed1461014f57806388685cd9146101775780638da5cb5b1461019f578063b02b4a2f146101c9578063e0c94ae5146101f357610085565b8063180aedf31461008957806334013c40146100cd578063391e35ca146100e95780634c5d8a0f14610125575b5f80fd5b348015610094575f80fd5b506100af60048036038101906100aa9190610cb6565b61021b565b6040516100c499989796959493929190610dd3565b60405180910390f35b6100e760048036038101906100e29190610cb6565b6103c9565b005b3480156100f4575f80fd5b5061010f600480360381019061010a9190610cb6565b61053b565b60405161011c9190610e6c565b60405180910390f35b348015610130575f80fd5b50610139610550565b6040516101469190610e6c565b60405180910390f35b34801561015a575f80fd5b5061017560048036038101906101709190610fb1565b610555565b005b348015610182575f80fd5b5061019d60048036038101906101989190610cb6565b61082f565b005b3480156101aa575f80fd5b506101b3610ac5565b6040516101c0919061104d565b60405180910390f35b3480156101d4575f80fd5b506101dd610aea565b6040516101ea9190610e6c565b60405180910390f35b3480156101fe575f80fd5b5061021960048036038101906102149190610cb6565b610af2565b005b6002602052805f5260405f205f91509050805f01549080600101805461024090611093565b80601f016020809104026020016040519081016040528092919081815260200182805461026c90611093565b80156102b75780601f1061028e576101008083540402835291602001916102b7565b820191905f5260205f20905b81548152906001019060200180831161029a57829003601f168201915b5050505050908060020180546102cc90611093565b80601f01602080910402602001604051908101604052809291908181526020018280546102f890611093565b80156103435780601f1061031a57610100808354040283529160200191610343565b820191905f5260205f20905b81548152906001019060200180831161032657829003601f168201915b505050505090806003015490806004015490806005015f9054906101000a900473ffffffffffffffffffffffffffffffffffffffff1690806006015f9054906101000a900473ffffffffffffffffffffffffffffffffffffffff16908060060160149054906101000a900460ff16908060060160159054906101000a900460ff16905089565b60015f9054906101000a900473ffffffffffffffffffffffffffffffffffffffff1673ffffffffffffffffffffffffffffffffffffffff163373ffffffffffffffffffffffffffffffffffffffff1614610458576040517f08c379a000000000000000000000000000000000000000000000000000000000815260040161044f9061110d565b60405180910390fd5b5f60025f8381526020019081526020015f209050806003015434146104b2576040517f08c379a00000000000000000000000000000000000000000000000000000000081526004016104a990611175565b60405180910390fd5b8060060160149054906101000a900460ff1615610504576040517f08c379a00000000000000000000000000000000000000000000000000000000081526004016104fb906111dd565b60405180910390fd5b60018160060160146101000a81548160ff0219169083151502179055503460035f8481526020019081526020015f20819055505050565b6003602052805f5260405f205f915090505481565b5f5481565b60015f9054906101000a900473ffffffffffffffffffffffffffffffffffffffff1673ffffffffffffffffffffffffffffffffffffffff163373ffffffffffffffffffffffffffffffffffffffff16146105e4576040517f08c379a00000000000000000000000000000000000000000000000000000000081526004016105db9061110d565b60405180910390fd5b5f8211610626576040517f08c379a000000000000000000000000000000000000000000000000000000000815260040161061d90611245565b60405180910390fd5b5f8081548092919061063790611290565b91905055506040518061012001604052805f5481526020018581526020018481526020018381526020018281526020013373ffffffffffffffffffffffffffffffffffffffff1681526020015f73ffffffffffffffffffffffffffffffffffffffff1681526020015f151581526020015f151581525060025f805481526020019081526020015f205f820151815f015560208201518160010190816106dc9190611474565b5060408201518160020190816106f29190611474565b50606082015181600301556080820151816004015560a0820151816005015f6101000a81548173ffffffffffffffffffffffffffffffffffffffff021916908373ffffffffffffffffffffffffffffffffffffffff16021790555060c0820151816006015f6101000a81548173ffffffffffffffffffffffffffffffffffffffff021916908373ffffffffffffffffffffffffffffffffffffffff16021790555060e08201518160060160146101000a81548160ff0219169083151502179055506101008201518160060160156101000a81548160ff0219169083151502179055509050503373ffffffffffffffffffffffffffffffffffffffff165f547fd347156c0e050f531434f3eac5fc2137040ab077ca656f465275ebe566aaf1158685604051610821929190611543565b60405180910390a350505050565b60015f9054906101000a900473ffffffffffffffffffffffffffffffffffffffff1673ffffffffffffffffffffffffffffffffffffffff163373ffffffffffffffffffffffffffffffffffffffff16146108be576040517f08c379a00000000000000000000000000000000000000000000000000000000081526004016108b59061110d565b60405180910390fd5b5f60025f8381526020019081526020015f2090505f73ffffffffffffffffffffffffffffffffffffffff16816006015f9054906101000a900473ffffffffffffffffffffffffffffffffffffffff1673ffffffffffffffffffffffffffffffffffffffff1603610963576040517f08c379a000000000000000000000000000000000000000000000000000000000815260040161095a906115bb565b60405180910390fd5b8060060160159054906101000a900460ff16156109b5576040517f08c379a00000000000000000000000000000000000000000000000000000000081526004016109ac90611623565b60405180910390fd5b5f60035f8481526020019081526020015f20549050816006015f9054906101000a900473ffffffffffffffffffffffffffffffffffffffff1673ffffffffffffffffffffffffffffffffffffffff166108fc8290811502906040515f60405180830381858888f19350505050158015610a30573d5f803e3d5ffd5b5060018260060160156101000a81548160ff021916908315150217905550816006015f9054906101000a900473ffffffffffffffffffffffffffffffffffffffff1673ffffffffffffffffffffffffffffffffffffffff16837f21d71db5be59bb9fa133895586b7404307dd33fb93b16db09dc6f1d9d7d231b083604051610ab89190610e6c565b60405180910390a3505050565b60015f9054906101000a900473ffffffffffffffffffffffffffffffffffffffff1681565b5f8054905090565b5f60025f8381526020019081526020015f2090505f73ffffffffffffffffffffffffffffffffffffffff16816006015f9054906101000a900473ffffffffffffffffffffffffffffffffffffffff1673ffffffffffffffffffffffffffffffffffffffff1614610b97576040517f08c379a0000000000000000000000000000000000000000000000000000000008152600401610b8e9061168b565b60405180910390fd5b8060060160149054906101000a900460ff16610be8576040517f08c379a0000000000000000000000000000000000000000000000000000000008152600401610bdf906116f3565b60405180910390fd5b33816006015f6101000a81548173ffffffffffffffffffffffffffffffffffffffff021916908373ffffffffffffffffffffffffffffffffffffffff1602179055503373ffffffffffffffffffffffffffffffffffffffff16827fffa837d183240a5f25cbd643a8eade702c0c9c3e186c59c7d929e4f1a3438d8660405160405180910390a35050565b5f604051905090565b5f80fd5b5f80fd5b5f819050919050565b610c9581610c83565b8114610c9f575f80fd5b50565b5f81359050610cb081610c8c565b92915050565b5f60208284031215610ccb57610cca610c7b565b5b5f610cd884828501610ca2565b91505092915050565b610cea81610c83565b82525050565b5f81519050919050565b5f82825260208201905092915050565b5f5b83811015610d27578082015181840152602081019050610d0c565b5f8484015250505050565b5f601f19601f8301169050919050565b5f610d4c82610cf0565b610d568185610cfa565b9350610d66818560208601610d0a565b610d6f81610d32565b840191505092915050565b5f73ffffffffffffffffffffffffffffffffffffffff82169050919050565b5f610da382610d7a565b9050919050565b610db381610d99565b82525050565b5f8115159050919050565b610dcd81610db9565b82525050565b5f61012082019050610de75f83018c610ce1565b8181036020830152610df9818b610d42565b90508181036040830152610e0d818a610d42565b9050610e1c6060830189610ce1565b610e296080830188610ce1565b610e3660a0830187610daa565b610e4360c0830186610daa565b610e5060e0830185610dc4565b610e5e610100830184610dc4565b9a9950505050505050505050565b5f602082019050610e7f5f830184610ce1565b92915050565b5f80fd5b5f80fd5b7f4e487b71000000000000000000000000000000000000000000000000000000005f52604160045260245ffd5b610ec382610d32565b810181811067ffffffffffffffff82111715610ee257610ee1610e8d565b5b80604052505050565b5f610ef4610c72565b9050610f008282610eba565b919050565b5f67ffffffffffffffff821115610f1f57610f1e610e8d565b5b610f2882610d32565b9050602081019050919050565b828183375f83830152505050565b5f610f55610f5084610f05565b610eeb565b905082815260208101848484011115610f7157610f70610e89565b5b610f7c848285610f35565b509392505050565b5f82601f830112610f9857610f97610e85565b5b8135610fa8848260208601610f43565b91505092915050565b5f805f8060808587031215610fc957610fc8610c7b565b5b5f85013567ffffffffffffffff811115610fe657610fe5610c7f565b5b610ff287828801610f84565b945050602085013567ffffffffffffffff81111561101357611012610c7f565b5b61101f87828801610f84565b935050604061103087828801610ca2565b925050606061104187828801610ca2565b91505092959194509250565b5f6020820190506110605f830184610daa565b92915050565b7f4e487b71000000000000000000000000000000000000000000000000000000005f52602260045260245ffd5b5f60028204905060018216806110aa57607f821691505b6020821081036110bd576110bc611066565b5b50919050565b7f4e6f74206f776e657200000000000000000000000000000000000000000000005f82015250565b5f6110f7600983610cfa565b9150611102826110c3565b602082019050919050565b5f6020820190508181035f830152611124816110eb565b9050919050565b7f4d7573742073656e642065786163742062756467657420616d6f756e740000005f82015250565b5f61115f601d83610cfa565b915061116a8261112b565b602082019050919050565b5f6020820190508181035f83015261118c81611153565b9050919050565b7f46756e647320616c726561647920657363726f776564000000000000000000005f82015250565b5f6111c7601683610cfa565b91506111d282611193565b602082019050919050565b5f6020820190508181035f8301526111f4816111bb565b9050919050565b7f427564676574206d7573742062652067726561746572207468616e20300000005f82015250565b5f61122f601d83610cfa565b915061123a826111fb565b602082019050919050565b5f6020820190508181035f83015261125c81611223565b9050919050565b7f4e487b71000000000000000000000000000000000000000000000000000000005f52601160045260245ffd5b5f61129a82610c83565b91507fffffffffffffffffffffffffffffffffffffffffffffffffffffffffffffffff82036112cc576112cb611263565b5b600182019050919050565b5f819050815f5260205f209050919050565b5f6020601f8301049050919050565b5f82821b905092915050565b5f600883026113337fffffffffffffffffffffffffffffffffffffffffffffffffffffffffffffffff826112f8565b61133d86836112f8565b95508019841693508086168417925050509392505050565b5f819050919050565b5f61137861137361136e84610c83565b611355565b610c83565b9050919050565b5f819050919050565b6113918361135e565b6113a561139d8261137f565b848454611304565b825550505050565b5f90565b6113b96113ad565b6113c4818484611388565b505050565b5b818110156113e7576113dc5f826113b1565b6001810190506113ca565b5050565b601f82111561142c576113fd816112d7565b611406846112e9565b81016020851015611415578190505b611429611421856112e9565b8301826113c9565b50505b505050565b5f82821c905092915050565b5f61144c5f1984600802611431565b1980831691505092915050565b5f611464838361143d565b9150826002028217905092915050565b61147d82610cf0565b67ffffffffffffffff81111561149657611495610e8d565b5b6114a08254611093565b6114ab8282856113eb565b5f60209050601f8311600181146114dc575f84156114ca578287015190505b6114d48582611459565b86555061153b565b601f1984166114ea866112d7565b5f5b82811015611511578489015182556001820191506020850194506020810190506114ec565b8683101561152e578489015161152a601f89168261143d565b8355505b6001600288020188555050505b505050505050565b5f6040820190508181035f83015261155b8185610d42565b905061156a6020830184610ce1565b9392505050565b7f4e6f20667265656c616e6365722061737369676e6564000000000000000000005f82015250565b5f6115a5601683610cfa565b91506115b082611571565b602082019050919050565b5f6020820190508181035f8301526115d281611599565b9050919050565b7f5061796d656e7420616c72656164792072656c656173656400000000000000005f82015250565b5f61160d601883610cfa565b9150611618826115d9565b602082019050919050565b5f6020820190508181035f83015261163a81611601565b9050919050565b7f4a6f6220616c726561647920686173206170706c6963616e74000000000000005f82015250565b5f611675601983610cfa565b915061168082611641565b602082019050919050565b5f6020820190508181035f8301526116a281611669565b9050919050565b7f456d706c6f796572206d75737420657363726f772066756e64732066697273745f82015250565b5f6116dd602083610cfa565b91506116e8826116a9565b602082019050919050565b5f6020820190508181035f83015261170a816116d1565b905091905056fea2646970667358221220f53e029ed81d037bd863904bbfcb4b5fc3fcec6fee212edcddc408cb6003865564736f6c63430008150033",
  "immutableReferences": {},
  "source": "// contracts/DecentralizedJobBoard.sol\n// SPDX-License-Identifier: MIT\npragma solidity ^0.8.21;\n\ncontract DecentralizedJobBoard {\n    uint public jobCount;\n    address public owner;\n    \n    struct Job {\n        uint id;\n        string title;\n        string description;\n        uint budget;\n        uint duration;\n        address employer;\n        address freelancer;\n        bool fundsEscrowed;\n        bool paymentReleased;\n    }\n    \n    mapping(uint => Job) public jobs;\n    mapping(uint => uint) public escrowedAmounts;\n    \n    event JobPosted(uint indexed jobId, address indexed employer, string title, uint budget);\n    event JobApplied(uint indexed jobId, address indexed freelancer);\n    event PaymentReleased(uint indexed jobId, address indexed freelancer, uint amount);\n    event EmployerRefunded(uint indexed jobId, address indexed employer, uint amount);\n    \n    constructor() {\n        owner = msg.sender;\n    }\n    \n    modifier onlyOwner() {\n        require(msg.sender == owner, \"Not owner\");\n        _;\n    }\n    \n    function postJob(\n        string memory _title,\n        string memory _description,\n        uint _budget,\n        uint _duration\n    ) public onlyOwner {\n        require(_budget > 0, \"Budget must be greater than 0\");\n        jobCount++;\n        jobs[jobCount] = Job(\n            jobCount,\n            _title,\n            _description,\n            _budget,\n            _duration,\n            msg.sender,\n            address(0),\n            false,\n            false\n        );\n        emit JobPosted(jobCount, msg.sender, _title, _budget);\n    }\n    \n    function escrowFunds(uint _jobId) public payable onlyOwner {\n        Job storage job = jobs[_jobId];\n        require(msg.value == job.budget, \"Must send exact budget amount\");\n        require(!job.fundsEscrowed, \"Funds already escrowed\");\n        \n        job.fundsEscrowed = true;\n        escrowedAmounts[_jobId] = msg.value;\n    }\n    \n    function applyForJob(uint _jobId) public {\n        Job storage job = jobs[_jobId];\n        require(job.freelancer == address(0), \"Job already has applicant\");\n        require(job.fundsEscrowed, \"Employer must escrow funds first\");\n        \n        job.freelancer = msg.sender;\n        emit JobApplied(_jobId, msg.sender);\n    }\n    \n    function releasePayment(uint _jobId) public onlyOwner {\n        Job storage job = jobs[_jobId];\n        require(job.freelancer != address(0), \"No freelancer assigned\");\n        require(!job.paymentReleased, \"Payment already released\");\n        \n        uint amount = escrowedAmounts[_jobId];\n        payable(job.freelancer).transfer(amount);\n        \n        job.paymentReleased = true;\n        emit PaymentReleased(_jobId, job.freelancer, amount);\n    }\n    \n    function getJobCount() public view returns (uint) {\n        return jobCount;\n    }\n}",
  "sourcePath": "/Users/gaman/Desktop/DJB/backend/contracts/JobBoard.sol",
  "compiler": {
    "name": "solc",
    "version": "0.8.21+commit.d9974bed.Emscripten.clang"
  },
  "schemaVersion": "3.4.16",
  "updatedAt": "2025-04-23T20:16:19.330Z",
  "networkType": "ethereum",
  "devdoc": {
    "kind": "dev",
    "methods": {},
    "version": 1
  },
  "userdoc": {
    "kind": "user",
    "methods": {},
    "version": 1
  }
}