{
  "contractName": "JobBoard",
  "abi": [
    {
      "anonymous": false,
      "inputs": [
        {
          "indexed": true,
          "internalType": "uint256",
          "name": "jobId",
          "type": "uint256"
        },
        {
          "indexed": true,
          "internalType": "address",
          "name": "employer",
          "type": "address"
        },
        {
          "indexed": false,
          "internalType": "uint256",
          "name": "amount",
          "type": "uint256"
        }
      ],
      "name": "EmployerRefunded",
      "type": "event"
    },
    {
      "anonymous": false,
      "inputs": [
        {
          "indexed": true,
          "internalType": "uint256",
          "name": "jobId",
          "type": "uint256"
        },
        {
          "indexed": true,
          "internalType": "address",
          "name": "freelancer",
          "type": "address"
        }
      ],
      "name": "JobApplied",
      "type": "event"
    },
    {
      "anonymous": false,
      "inputs": [
        {
          "indexed": true,
          "internalType": "uint256",
          "name": "jobId",
          "type": "uint256"
        },
        {
          "indexed": true,
          "internalType": "address",
          "name": "employer",
          "type": "address"
        },
        {
          "indexed": false,
          "internalType": "string",
          "name": "title",
          "type": "string"
        },
        {
          "indexed": false,
          "internalType": "uint256",
          "name": "budget",
          "type": "uint256"
        }
      ],
      "name": "JobPosted",
      "type": "event"
    },
    {
      "anonymous": false,
      "inputs": [
        {
          "indexed": true,
          "internalType": "uint256",
          "name": "jobId",
          "type": "uint256"
        },
        {
          "indexed": false,
          "internalType": "uint256",
          "name": "amount",
          "type": "uint256"
        }
      ],
      "name": "PaymentEscrowed",
      "type": "event"
    },
    {
      "anonymous": false,
      "inputs": [
        {
          "indexed": true,
          "internalType": "uint256",
          "name": "jobId",
          "type": "uint256"
        },
        {
          "indexed": true,
          "internalType": "address",
          "name": "freelancer",
          "type": "address"
        },
        {
          "indexed": false,
          "internalType": "uint256",
          "name": "amount",
          "type": "uint256"
        }
      ],
      "name": "PaymentReleased",
      "type": "event"
    },
    {
      "inputs": [],
      "name": "REFUND_DELAY",
      "outputs": [
        {
          "internalType": "uint256",
          "name": "",
          "type": "uint256"
        }
      ],
      "stateMutability": "view",
      "type": "function"
    },
    {
      "inputs": [
        {
          "internalType": "uint256",
          "name": "",
          "type": "uint256"
        }
      ],
      "name": "escrowedFunds",
      "outputs": [
        {
          "internalType": "uint256",
          "name": "",
          "type": "uint256"
        }
      ],
      "stateMutability": "view",
      "type": "function"
    },
    {
      "inputs": [],
      "name": "jobCount",
      "outputs": [
        {
          "internalType": "uint256",
          "name": "",
          "type": "uint256"
        }
      ],
      "stateMutability": "view",
      "type": "function"
    },
    {
      "inputs": [
        {
          "internalType": "uint256",
          "name": "",
          "type": "uint256"
        }
      ],
      "name": "jobs",
      "outputs": [
        {
          "internalType": "string",
          "name": "title",
          "type": "string"
        },
        {
          "internalType": "string",
          "name": "description",
          "type": "string"
        },
        {
          "internalType": "uint256",
          "name": "budget",
          "type": "uint256"
        },
        {
          "internalType": "address",
          "name": "employer",
          "type": "address"
        },
        {
          "internalType": "address",
          "name": "freelancer",
          "type": "address"
        },
        {
          "internalType": "enum JobBoard.JobStatus",
          "name": "status",
          "type": "uint8"
        },
        {
          "internalType": "uint256",
          "name": "escrowTime",
          "type": "uint256"
        }
      ],
      "stateMutability": "view",
      "type": "function"
    },
    {
      "inputs": [
        {
          "internalType": "string",
          "name": "_title",
          "type": "string"
        },
        {
          "internalType": "string",
          "name": "_description",
          "type": "string"
        },
        {
          "internalType": "uint256",
          "name": "_budget",
          "type": "uint256"
        }
      ],
      "name": "postJob",
      "outputs": [],
      "stateMutability": "nonpayable",
      "type": "function"
    },
    {
      "inputs": [
        {
          "internalType": "uint256",
          "name": "jobId",
          "type": "uint256"
        }
      ],
      "name": "applyForJob",
      "outputs": [],
      "stateMutability": "nonpayable",
      "type": "function"
    },
    {
      "inputs": [
        {
          "internalType": "uint256",
          "name": "jobId",
          "type": "uint256"
        }
      ],
      "name": "escrowFunds",
      "outputs": [],
      "stateMutability": "payable",
      "type": "function"
    },
    {
      "inputs": [
        {
          "internalType": "uint256",
          "name": "jobId",
          "type": "uint256"
        }
      ],
      "name": "releasePayment",
      "outputs": [],
      "stateMutability": "nonpayable",
      "type": "function"
    },
    {
      "inputs": [
        {
          "internalType": "uint256",
          "name": "jobId",
          "type": "uint256"
        }
      ],
      "name": "refundEmployer",
      "outputs": [],
      "stateMutability": "nonpayable",
      "type": "function"
    },
    {
      "inputs": [],
      "name": "getJobCount",
      "outputs": [
        {
          "internalType": "uint256",
          "name": "",
          "type": "uint256"
        }
      ],
      "stateMutability": "view",
      "type": "function"
    }
  ],
  "bytecode": "0x608060405234801561000f575f80fd5b50611eb38061001d5f395ff3fe608060405260043610610090575f3560e01c806388685cd91161005857806388685cd91461016e578063b02b4a2f14610196578063b489e147146101c0578063df7903ea146101fc578063e0c94ae51461022457610090565b8063180aedf314610094578063190da595146100d657806334013c40146101005780634c5d8a0f1461011c5780635c3b9c4a14610146575b5f80fd5b34801561009f575f80fd5b506100ba60048036038101906100b591906111d9565b61024c565b6040516100cd979695949392919061134f565b60405180910390f35b3480156100e1575f80fd5b506100ea6103e1565b6040516100f791906113ca565b60405180910390f35b61011a600480360381019061011591906111d9565b6103e8565b005b348015610127575f80fd5b5061013061065c565b60405161013d91906113ca565b60405180910390f35b348015610151575f80fd5b5061016c6004803603810190610167919061150f565b610661565b005b348015610179575f80fd5b50610194600480360381019061018f91906111d9565b610890565b005b3480156101a1575f80fd5b506101aa610b9e565b6040516101b791906113ca565b60405180910390f35b3480156101cb575f80fd5b506101e660048036038101906101e191906111d9565b610ba6565b6040516101f391906113ca565b60405180910390f35b348015610207575f80fd5b50610222600480360381019061021d91906111d9565b610bbb565b005b34801561022f575f80fd5b5061024a600480360381019061024591906111d9565b610f19565b005b6001602052805f5260405f205f91509050805f01805461026b906115c4565b80601f0160208091040260200160405190810160405280929190818152602001828054610297906115c4565b80156102e25780601f106102b9576101008083540402835291602001916102e2565b820191905f5260205f20905b8154815290600101906020018083116102c557829003601f168201915b5050505050908060010180546102f7906115c4565b80601f0160208091040260200160405190810160405280929190818152602001828054610323906115c4565b801561036e5780601f106103455761010080835404028352916020019161036e565b820191905f5260205f20905b81548152906001019060200180831161035157829003601f168201915b505050505090806002015490806003015f9054906101000a900473ffffffffffffffffffffffffffffffffffffffff1690806004015f9054906101000a900473ffffffffffffffffffffffffffffffffffffffff16908060040160149054906101000a900460ff16908060050154905087565b62093a8081565b805f5481111580156103fa57505f8114155b610439576040517f08c379a00000000000000000000000000000000000000000000000000000000081526004016104309061163e565b60405180910390fd5b8160015f8281526020019081526020015f206003015f9054906101000a900473ffffffffffffffffffffffffffffffffffffffff1673ffffffffffffffffffffffffffffffffffffffff163373ffffffffffffffffffffffffffffffffffffffff16146104db576040517f08c379a00000000000000000000000000000000000000000000000000000000081526004016104d2906116a6565b60405180910390fd5b5f60015f8581526020019081526020015f2090505f6003811115610502576105016112dc565b5b8160040160149054906101000a900460ff166003811115610526576105256112dc565b5b14610566576040517f08c379a000000000000000000000000000000000000000000000000000000000815260040161055d9061170e565b60405180910390fd5b806002015434146105ac576040517f08c379a00000000000000000000000000000000000000000000000000000000081526004016105a390611776565b60405180910390fd5b5f60025f8681526020019081526020015f2054146105ff576040517f08c379a00000000000000000000000000000000000000000000000000000000081526004016105f6906117de565b60405180910390fd5b3460025f8681526020019081526020015f2081905550428160050181905550837f0fbcac148363a35bd0ca56d1f3f4257e0a2dddc572216514dd85b68a0b969f3b3460405161064e91906113ca565b60405180910390a250505050565b5f5481565b5f81116106a3576040517f08c379a000000000000000000000000000000000000000000000000000000000815260040161069a90611846565b60405180910390fd5b5f808154809291906106b490611891565b91905055506040518060e001604052808481526020018381526020018281526020013373ffffffffffffffffffffffffffffffffffffffff1681526020015f73ffffffffffffffffffffffffffffffffffffffff1681526020015f6003811115610721576107206112dc565b5b81526020015f81525060015f805481526020019081526020015f205f820151815f01908161074f9190611a75565b5060208201518160010190816107659190611a75565b50604082015181600201556060820151816003015f6101000a81548173ffffffffffffffffffffffffffffffffffffffff021916908373ffffffffffffffffffffffffffffffffffffffff1602179055506080820151816004015f6101000a81548173ffffffffffffffffffffffffffffffffffffffff021916908373ffffffffffffffffffffffffffffffffffffffff16021790555060a08201518160040160146101000a81548160ff02191690836003811115610827576108266112dc565b5b021790555060c082015181600501559050503373ffffffffffffffffffffffffffffffffffffffff165f547fd347156c0e050f531434f3eac5fc2137040ab077ca656f465275ebe566aaf1158584604051610883929190611b44565b60405180910390a3505050565b805f5481111580156108a257505f8114155b6108e1576040517f08c379a00000000000000000000000000000000000000000000000000000000081526004016108d89061163e565b60405180910390fd5b8160015f8281526020019081526020015f206003015f9054906101000a900473ffffffffffffffffffffffffffffffffffffffff1673ffffffffffffffffffffffffffffffffffffffff163373ffffffffffffffffffffffffffffffffffffffff1614610983576040517f08c379a000000000000000000000000000000000000000000000000000000000815260040161097a906116a6565b60405180910390fd5b5f60015f8581526020019081526020015f209050600160038111156109ab576109aa6112dc565b5b8160040160149054906101000a900460ff1660038111156109cf576109ce6112dc565b5b14610a0f576040517f08c379a0000000000000000000000000000000000000000000000000000000008152600401610a0690611bbc565b60405180910390fd5b806002015460025f8681526020019081526020015f205414610a66576040517f08c379a0000000000000000000000000000000000000000000000000000000008152600401610a5d90611c24565b60405180910390fd5b60028160040160146101000a81548160ff02191690836003811115610a8e57610a8d6112dc565b5b02179055505f60025f8681526020019081526020015f205490505f60025f8781526020019081526020015f2081905550816004015f9054906101000a900473ffffffffffffffffffffffffffffffffffffffff1673ffffffffffffffffffffffffffffffffffffffff166108fc8290811502906040515f60405180830381858888f19350505050158015610b24573d5f803e3d5ffd5b50816004015f9054906101000a900473ffffffffffffffffffffffffffffffffffffffff1673ffffffffffffffffffffffffffffffffffffffff16857f21d71db5be59bb9fa133895586b7404307dd33fb93b16db09dc6f1d9d7d231b083604051610b8f91906113ca565b60405180910390a35050505050565b5f8054905090565b6002602052805f5260405f205f915090505481565b805f548111158015610bcd57505f8114155b610c0c576040517f08c379a0000000000000000000000000000000000000000000000000000000008152600401610c039061163e565b60405180910390fd5b8160015f8281526020019081526020015f206003015f9054906101000a900473ffffffffffffffffffffffffffffffffffffffff1673ffffffffffffffffffffffffffffffffffffffff163373ffffffffffffffffffffffffffffffffffffffff1614610cae576040517f08c379a0000000000000000000000000000000000000000000000000000000008152600401610ca5906116a6565b60405180910390fd5b5f60015f8581526020019081526020015f2090505f6003811115610cd557610cd46112dc565b5b8160040160149054906101000a900460ff166003811115610cf957610cf86112dc565b5b14610d39576040517f08c379a0000000000000000000000000000000000000000000000000000000008152600401610d309061170e565b60405180910390fd5b62093a808160050154610d4c9190611c42565b421015610d8e576040517f08c379a0000000000000000000000000000000000000000000000000000000008152600401610d8590611cbf565b60405180910390fd5b5f60025f8681526020019081526020015f205411610de1576040517f08c379a0000000000000000000000000000000000000000000000000000000008152600401610dd890611d27565b60405180910390fd5b60038160040160146101000a81548160ff02191690836003811115610e0957610e086112dc565b5b02179055505f60025f8681526020019081526020015f205490505f60025f8781526020019081526020015f2081905550816003015f9054906101000a900473ffffffffffffffffffffffffffffffffffffffff1673ffffffffffffffffffffffffffffffffffffffff166108fc8290811502906040515f60405180830381858888f19350505050158015610e9f573d5f803e3d5ffd5b50816003015f9054906101000a900473ffffffffffffffffffffffffffffffffffffffff1673ffffffffffffffffffffffffffffffffffffffff16857f247610d3bde046554f9329011daf2554eeb232cd7627a9d22a04033084a6221483604051610f0a91906113ca565b60405180910390a35050505050565b805f548111158015610f2b57505f8114155b610f6a576040517f08c379a0000000000000000000000000000000000000000000000000000000008152600401610f619061163e565b60405180910390fd5b5f60015f8481526020019081526020015f2090505f73ffffffffffffffffffffffffffffffffffffffff16816004015f9054906101000a900473ffffffffffffffffffffffffffffffffffffffff1673ffffffffffffffffffffffffffffffffffffffff161461100f576040517f08c379a000000000000000000000000000000000000000000000000000000000815260040161100690611d8f565b60405180910390fd5b5f6003811115611022576110216112dc565b5b8160040160149054906101000a900460ff166003811115611046576110456112dc565b5b14611086576040517f08c379a000000000000000000000000000000000000000000000000000000000815260040161107d90611df7565b60405180910390fd5b806002015460025f8581526020019081526020015f2054146110dd576040517f08c379a00000000000000000000000000000000000000000000000000000000081526004016110d490611e5f565b60405180910390fd5b33816004015f6101000a81548173ffffffffffffffffffffffffffffffffffffffff021916908373ffffffffffffffffffffffffffffffffffffffff16021790555060018160040160146101000a81548160ff02191690836003811115611147576111466112dc565b5b02179055503373ffffffffffffffffffffffffffffffffffffffff16837fffa837d183240a5f25cbd643a8eade702c0c9c3e186c59c7d929e4f1a3438d8660405160405180910390a3505050565b5f604051905090565b5f80fd5b5f80fd5b5f819050919050565b6111b8816111a6565b81146111c2575f80fd5b50565b5f813590506111d3816111af565b92915050565b5f602082840312156111ee576111ed61119e565b5b5f6111fb848285016111c5565b91505092915050565b5f81519050919050565b5f82825260208201905092915050565b5f5b8381101561123b578082015181840152602081019050611220565b5f8484015250505050565b5f601f19601f8301169050919050565b5f61126082611204565b61126a818561120e565b935061127a81856020860161121e565b61128381611246565b840191505092915050565b611297816111a6565b82525050565b5f73ffffffffffffffffffffffffffffffffffffffff82169050919050565b5f6112c68261129d565b9050919050565b6112d6816112bc565b82525050565b7f4e487b71000000000000000000000000000000000000000000000000000000005f52602160045260245ffd5b6004811061131a576113196112dc565b5b50565b5f81905061132a82611309565b919050565b5f6113398261131d565b9050919050565b6113498161132f565b82525050565b5f60e0820190508181035f830152611367818a611256565b9050818103602083015261137b8189611256565b905061138a604083018861128e565b61139760608301876112cd565b6113a460808301866112cd565b6113b160a0830185611340565b6113be60c083018461128e565b98975050505050505050565b5f6020820190506113dd5f83018461128e565b92915050565b5f80fd5b5f80fd5b7f4e487b71000000000000000000000000000000000000000000000000000000005f52604160045260245ffd5b61142182611246565b810181811067ffffffffffffffff821117156114405761143f6113eb565b5b80604052505050565b5f611452611195565b905061145e8282611418565b919050565b5f67ffffffffffffffff82111561147d5761147c6113eb565b5b61148682611246565b9050602081019050919050565b828183375f83830152505050565b5f6114b36114ae84611463565b611449565b9050828152602081018484840111156114cf576114ce6113e7565b5b6114da848285611493565b509392505050565b5f82601f8301126114f6576114f56113e3565b5b81356115068482602086016114a1565b91505092915050565b5f805f606084860312156115265761152561119e565b5b5f84013567ffffffffffffffff811115611543576115426111a2565b5b61154f868287016114e2565b935050602084013567ffffffffffffffff8111156115705761156f6111a2565b5b61157c868287016114e2565b925050604061158d868287016111c5565b9150509250925092565b7f4e487b71000000000000000000000000000000000000000000000000000000005f52602260045260245ffd5b5f60028204905060018216806115db57607f821691505b6020821081036115ee576115ed611597565b5b50919050565b7f4a6f6220646f6573206e6f7420657869737400000000000000000000000000005f82015250565b5f61162860128361120e565b9150611633826115f4565b602082019050919050565b5f6020820190508181035f8301526116558161161c565b9050919050565b7f4f6e6c7920656d706c6f7965722063616e2063616c6c207468697300000000005f82015250565b5f611690601b8361120e565b915061169b8261165c565b602082019050919050565b5f6020820190508181035f8301526116bd81611684565b9050919050565b7f4a6f62206d757374206265206f70656e000000000000000000000000000000005f82015250565b5f6116f860108361120e565b9150611703826116c4565b602082019050919050565b5f6020820190508181035f830152611725816116ec565b9050919050565b7f4d7573742073656e642065786163742062756467657420616d6f756e740000005f82015250565b5f611760601d8361120e565b915061176b8261172c565b602082019050919050565b5f6020820190508181035f83015261178d81611754565b9050919050565b7f46756e647320616c726561647920657363726f776564000000000000000000005f82015250565b5f6117c860168361120e565b91506117d382611794565b602082019050919050565b5f6020820190508181035f8301526117f5816117bc565b9050919050565b7f427564676574206d7573742062652067726561746572207468616e20300000005f82015250565b5f611830601d8361120e565b915061183b826117fc565b602082019050919050565b5f6020820190508181035f83015261185d81611824565b9050919050565b7f4e487b71000000000000000000000000000000000000000000000000000000005f52601160045260245ffd5b5f61189b826111a6565b91507fffffffffffffffffffffffffffffffffffffffffffffffffffffffffffffffff82036118cd576118cc611864565b5b600182019050919050565b5f819050815f5260205f209050919050565b5f6020601f8301049050919050565b5f82821b905092915050565b5f600883026119347fffffffffffffffffffffffffffffffffffffffffffffffffffffffffffffffff826118f9565b61193e86836118f9565b95508019841693508086168417925050509392505050565b5f819050919050565b5f61197961197461196f846111a6565b611956565b6111a6565b9050919050565b5f819050919050565b6119928361195f565b6119a661199e82611980565b848454611905565b825550505050565b5f90565b6119ba6119ae565b6119c5818484611989565b505050565b5b818110156119e8576119dd5f826119b2565b6001810190506119cb565b5050565b601f821115611a2d576119fe816118d8565b611a07846118ea565b81016020851015611a16578190505b611a2a611a22856118ea565b8301826119ca565b50505b505050565b5f82821c905092915050565b5f611a4d5f1984600802611a32565b1980831691505092915050565b5f611a658383611a3e565b9150826002028217905092915050565b611a7e82611204565b67ffffffffffffffff811115611a9757611a966113eb565b5b611aa182546115c4565b611aac8282856119ec565b5f60209050601f831160018114611add575f8415611acb578287015190505b611ad58582611a5a565b865550611b3c565b601f198416611aeb866118d8565b5f5b82811015611b1257848901518255600182019150602085019450602081019050611aed565b86831015611b2f5784890151611b2b601f891682611a3e565b8355505b6001600288020188555050505b505050505050565b5f6040820190508181035f830152611b5c8185611256565b9050611b6b602083018461128e565b9392505050565b7f4a6f62206d7573742062652061737369676e65640000000000000000000000005f82015250565b5f611ba660148361120e565b9150611bb182611b72565b602082019050919050565b5f6020820190508181035f830152611bd381611b9a565b9050919050565b7f496e636f727265637420657363726f7720616d6f756e740000000000000000005f82015250565b5f611c0e60178361120e565b9150611c1982611bda565b602082019050919050565b5f6020820190508181035f830152611c3b81611c02565b9050919050565b5f611c4c826111a6565b9150611c57836111a6565b9250828201905080821115611c6f57611c6e611864565b5b92915050565b7f526566756e642064656c6179206e6f74207061737365640000000000000000005f82015250565b5f611ca960178361120e565b9150611cb482611c75565b602082019050919050565b5f6020820190508181035f830152611cd681611c9d565b9050919050565b7f4e6f2066756e647320746f20726566756e6400000000000000000000000000005f82015250565b5f611d1160128361120e565b9150611d1c82611cdd565b602082019050919050565b5f6020820190508181035f830152611d3e81611d05565b9050919050565b7f4a6f6220616c72656164792061737369676e65640000000000000000000000005f82015250565b5f611d7960148361120e565b9150611d8482611d45565b602082019050919050565b5f6020820190508181035f830152611da681611d6d565b9050919050565b7f4a6f62206973206e6f74206f70656e00000000000000000000000000000000005f82015250565b5f611de1600f8361120e565b9150611dec82611dad565b602082019050919050565b5f6020820190508181035f830152611e0e81611dd5565b9050919050565b7f456d706c6f796572206d75737420657363726f772066756e64732066697273745f82015250565b5f611e4960208361120e565b9150611e5482611e15565b602082019050919050565b5f6020820190508181035f830152611e7681611e3d565b905091905056fea2646970667358221220d77b18e1805e45f31d5acc52d9785f5e246b353f76a18948c1318429415332d964736f6c63430008150033",
  "immutableReferences": {},
  "source": "// SPDX-License-Identifier: MIT\npragma solidity ^0.8.21;\n\ncontract JobBoard {\n    enum JobStatus { OPEN, ASSIGNED, COMPLETED, REFUNDED }\n    \n    struct Job {\n        string title;\n        string description;\n        uint256 budget;\n        address employer;\n        address freelancer;\n        JobStatus status;\n        uint256 escrowTime; // Tracks when funds were locked\n    }\n    \n    uint256 public jobCount;\n    mapping(uint256 => Job) public jobs;\n    mapping(uint256 => uint256) public escrowedFunds;\n    \n    uint256 public constant REFUND_DELAY = 7 days; // Time before refund allowed\n    \n    event JobPosted(uint256 indexed jobId, address indexed employer, string title, uint256 budget);\n    event JobApplied(uint256 indexed jobId, address indexed freelancer);\n    event PaymentEscrowed(uint256 indexed jobId, uint256 amount);\n    event PaymentReleased(uint256 indexed jobId, address indexed freelancer, uint256 amount);\n    event EmployerRefunded(uint256 indexed jobId, address indexed employer, uint256 amount);\n    \n    modifier onlyEmployer(uint256 jobId) {\n        require(msg.sender == jobs[jobId].employer, \"Only employer can call this\");\n        _;\n    }\n    \n    modifier jobExists(uint256 jobId) {\n        require(jobId <= jobCount && jobId != 0, \"Job does not exist\");\n        _;\n    }\n\n    function postJob(\n        string memory _title,\n        string memory _description,\n        uint256 _budget\n    ) public {\n        require(_budget > 0, \"Budget must be greater than 0\");\n        jobCount++;\n        \n        jobs[jobCount] = Job({\n            title: _title,\n            description: _description,\n            budget: _budget,\n            employer: msg.sender,\n            freelancer: address(0),\n            status: JobStatus.OPEN,\n            escrowTime: 0 // Initialize to 0 (not escrowed yet)\n        });\n        \n        emit JobPosted(jobCount, msg.sender, _title, _budget);\n    }\n\n    function applyForJob(uint256 jobId) public jobExists(jobId) {\n    Job storage job = jobs[jobId];\n    \n    // CORRECT ORDER - check assignment first!\n    require(job.freelancer == address(0), \"Job already assigned\");\n    require(job.status == JobStatus.OPEN, \"Job is not open\");\n    require(escrowedFunds[jobId] == job.budget, \"Employer must escrow funds first\");\n    \n    job.freelancer = msg.sender;\n    job.status = JobStatus.ASSIGNED;\n    \n    emit JobApplied(jobId, msg.sender);\n}\n\n    function escrowFunds(uint256 jobId) public payable jobExists(jobId) onlyEmployer(jobId) { // The onlyEmployer(jobId) modifier is attached.\n    Job storage job = jobs[jobId];\n    \n    require(job.status == JobStatus.OPEN, \"Job must be open\");\n    require(msg.value == job.budget, \"Must send exact budget amount\");\n    require(escrowedFunds[jobId] == 0, \"Funds already escrowed\");\n    \n    escrowedFunds[jobId] = msg.value; //  Funds Locking: Stores msg.value in escrowedFunds[jobId].\n    job.escrowTime = block.timestamp;\n    \n    emit PaymentEscrowed(jobId, msg.value);\n   } \n\n    function releasePayment(uint256 jobId) public jobExists(jobId) onlyEmployer(jobId) {\n        Job storage job = jobs[jobId];\n        \n        require(job.status == JobStatus.ASSIGNED, \"Job must be assigned\");\n        require(escrowedFunds[jobId] == job.budget, \"Incorrect escrow amount\");\n        \n        job.status = JobStatus.COMPLETED;\n        uint256 amount = escrowedFunds[jobId];\n        escrowedFunds[jobId] = 0;\n        \n        payable(job.freelancer).transfer(amount);\n        \n        emit PaymentReleased(jobId, job.freelancer, amount);\n    }\n\n    function refundEmployer(uint256 jobId) public jobExists(jobId) onlyEmployer(jobId) {\n        Job storage job = jobs[jobId];\n        \n        require(job.status == JobStatus.OPEN, \"Job must be open\");\n        require(block.timestamp >= job.escrowTime + REFUND_DELAY, \"Refund delay not passed\");\n        require(escrowedFunds[jobId] > 0, \"No funds to refund\");\n        \n        job.status = JobStatus.REFUNDED;\n        uint256 amount = escrowedFunds[jobId];\n        escrowedFunds[jobId] = 0;\n        \n        payable(job.employer).transfer(amount);\n        \n        emit EmployerRefunded(jobId, job.employer, amount);\n    }\n\n    function getJobCount() public view returns (uint256) {\n        return jobCount;\n    }\n}",
  "sourcePath": "/Users/gaman/Desktop/DJB/backend/contracts/JobBoard.sol",
  "compiler": {
    "name": "solc",
    "version": "0.8.21+commit.d9974bed.Emscripten.clang"
  },
  "schemaVersion": "3.4.16",
  "updatedAt": "2025-04-23T20:16:18.592Z",
  "devdoc": {
    "kind": "dev",
    "methods": {},
    "version": 1
  },
  "userdoc": {
    "kind": "user",
    "methods": {},
    "version": 1
  }
}